:0400000002001132B7
:03000B000201D619
:03006A0002000E83
:03000E000200E805
:20006D0075B1677E007F01EE24FFFCEF34FFFD8C068D07EC4D70F0E5B130E7FB75B2882284
:20008D00759850758920758DDCD28E438E10438780D29943A4012275FFDE75FFAD12006D08
:2000AD0012008D43E10443E34022AF8210990280FB8F992210980280FBAF998F82C00712EC
:2000CD0000B7D0078F82222098057582FF800BC2988599821200B7859982221200A47582E2
:2000ED00201200B71201BE1201C47430C0E07408C0E07480C0E01202151581158115811271
:20010D0000C1858208758A00758C00D28CE4F509F50AF50BF50CC3E509945EE50A941AE59D
:20012D000B9400E50C6480948040EB7458C0E07408C0E07480C0E0120215158115811581F8
:20014D00C009C00AC00BC00C7474C0E07408C0E07480C0E0120215E58124F9F581E4F5092C
:20016D00F50AF50BF50CC3E50994A4E50A941FE50B9400E50C6480948040EB7492C0E07435
:20018D0008C0E07480C0E0120215158115811581C009C00AC00BC00C7474C0E07408C0E05D
:2001AD007480C0E0120215E58124F9F5810200F722D2A943A88022438E085389F08589891D
:2001CD00C28C758A00758C0022C0E0C0D00509E4B5090C050AB50A07050BB50B02050CD02E
:0401ED00D0D0E0325C
:2008300048697420616E79206B6579206F6E20746865206B6579626F61726420746F20734D
:2008500074617274200D0A00322E35207365636F6E64732068617665207061737365642E60
:20087000200D0A004E756D626572206F66206F766572666C6F7773203D202531642E200D3A
:1C0890000A0033207365636F6E64732068617665207061737365642E200D0A0037
:06004000E478FFF6D8FD94
:20001E007900E94400601B7A009008B7780175AF00E493F2A308B8000205AFD9F4DAF275AB
:02003E00AFFF12
:200046007800E84400600A790175AF00E4F309D8FC7800E84400600C7900900001E4F0A3A9
:04006600D8FCD9FAEF
:2001F100C00E85810E1200B7D00E2285823185833285F033E4F52EF52FF530850D34900182
:20021100F10202ECC00E85810EE50E24FBFF8F34E4F52EF52FF530E50E24FBF88631088697
:0D023100320886339001F11202ECD00E224B
:20023E00AF82C024C025C02612024B8007C022C0238F8222158115811581052CE4B52C0228
:20025E00052D22AF8274302FFF24C6500A74072FFF3000034307208F8202023EE582FFC422
:20027E00540FF582C007120261D007740F5FF58202026185820F85271085281185291285E0
:20029E002A13AA2B751420EA2AFAE513235401FF8A064EFAE5102510F510E51133F511E5ED
:2002BE001233F512E51333F513C3EA950F4008EAC3950FFA431001E51414FF8F1470C885FD
:2002DE00102785112885122985132A8A2B22858222858323852E24852F25853026E4F52CCE
:2002FE00F52DAD31AE32AF338D828E838FF0120810FC74012DF531E43EF5328F33ECFF702B
:20031E00030207F1BF250280030207E9C201C202C203C204C205C206C207C2087535007514
:20033E0036007537FFAA31AB32AE338A828B838EF0120810FFA3AA82AB838A318B328E332E
:20035E00BF25078F8212023E8098BF3000402DEF24C6402874FFB53712E53675F00AA42FAE
:20037E00FC24D0F53670C4D20280C0E53775F00AA4FC8F05ED2C24D0F53780AFBF2E0A746A
:20039E00FFB537A775370080A2BF6100400CEF248540075307DFD2008002C200BF200280E4
:2003BE006DBF2B028063BF2D028059BF42028063BF43028068BF440302058FBF460302059F
:2003DE00A5BF4803020349BF490302058FBF4A03020349BF4C028040BF4F03020596BF507D
:2003FE0003020524BF5302805ABF5403020349BF550302059BBF58030205A0BF5A030203C4
:20041E00490205A9D201020349D203020349D204020349D206020349D20702034930060AD0
:20043E00E53414F9893487078011E53424FEFE8E348E018705098706198D078F8212023EE0
:20045E000205B2E53424FDFE8E348E01870409870509870619198C278D288E298C828D8317
:20047E008EF01207F8AD82AE8374FFB537028D37200126C3ED95365020E536C39DF536AEC4
:20049E00368E041EEC6010758220C006C00512023ED005D00680EA8E36AE3785278285286F
:2004BE00838529F0120810FCFF602F8E041EC374808CF063F08095F050208F82C006C00502
:2004DE0012023ED005D006AA27AB28AC290ABA00010B8A278B288C2980C12001030205B281
:2004FE00C3ED953640030205B2E536C39DF536AE368E041EEC70030205B0758220C0061228
:20051E00023ED00680EBE53424FDFC8C348C01870209870309870419198A278B288C29AC12
:20053E0029BC800040047F438014BC600040047F50800BBC400040047F4980027F588F8272
:20055E00C00712023E75823A12023E75823012023E75827812023ED007BF4902800BBF502C
:20057E0002800685288212027A85278212027A8023D20575350A801C753508801775350A95
:20059E008012753510800DD20880098F8212023E80028E3630085CE53424FCFE8E348E013C
:2005BE0087020987030987040987061919198A278B288C298E2A7527AC752808752980852B
:2005DE00273985283A85293B74012539FAE4353AFCAE3B8A278C288E29853982853A8385A5
:2005FE003BF0120810FEFF70030203008F8212023E80CCE535700302030075381A30062DA8
:20061E00E53414F9893487048C027B007C007E008A278B288C298E2A200566AA277B007C27
:20063E00007E008A278B288C298E2A8054300721E53424FCFE8E348E0187020987030987ED
:20065E00040987061919198A278B288C298E2A8030E53424FEFE8E348E0187040987061952
:20067E00EE3395E0FBFA8C278E288B298A2A200510AA27AB287C007E008A278B288C298E86
:20069E002A300522E52A30E71BC3E49527FAE49528FBE49529FCE4952AFE8A278B288C2929
:2006BE008E2A8002C205D209A9387E00752B00853582C006C001120291D001D00620090BFE
:2006DE00E52BC4FCE7FB4CF7198002A72B0EB209E52745284529452A70D289388E05E536CA
:2006FE007003753601200224200121ED04FEAC36C3EE9C5015758220C006C005C004120238
:20071E003ED004D005D0061C80E68C3630050E75822DC00512023ED00515368023ED60200C
:20073E0030030E75822BC00512023ED0051536800F30040C758220C00512023ED0051536E4
:20075E00200126AE368E041EC3ED9C502F3002067B307C0080047B207C008B82C006C00543
:20077E0012023ED005D00680DCC3ED95365008E536C39DF536800775360080028E36A93830
:20079E008D068E051EED6026B20920090A09E7C4540FFD8D2B80078705740F5DF52B852B07
:2007BE0082C006C001120261D001D00680D4200103020300AE368E051EED7003020300750A
:1A07DE008220C00612023ED00680EB8F8212023E020300852C82852D832214
:0B08AC003C4E4F20464C4F41543E0094
:1807F800AA82AB831208106003A380F8C3E5829AF582E5839BF583220F
:0D00110075813B12082CE582600302000E91
:1C08100020F71430F6148883A88220F507E6A88375830022E280F7E49322E022F7
:04082C0075820022AF
:00000001FF
