:040000000200513277
:01000B0032C2
:0100130032BA
:01001B0032B2
:0100230032AA
:01002B0032A2
:01003300329A
:01003B003292
:01004300328A
:03004B000202248A
:1500AA007508CD75090A750AEC750B07750CAE750D0D02004E6F
:03004E0002013A72
:2000BF0075B1677E007F01EE24FFFCEF34FFFD8C068D07EC4D70F0E5B130E7FB75B2882232
:2000DF00759850758920758DDCD28E438E10438780D29943A4012275FFDE75FFAD1200BF64
:2000FF001200DF43E10443E34022AF8210990280FB8F992210980280FBAF998F82C0071248
:20011F000109D0078F82222098057582FF800BC298859982120109859982221200F6758297
:20013F002012010912020912021012021412021E747CC0E07408C0E07480C0E012026115FF
:20015F00811581158185080E85090FE4F510F511C374329510E4951150F612017F80FB229F
:20017F00120113AF82C00774A7C0E07408C0E07480C0E0120261158115811581D007BF66A4
:20019F0020C3E50C950EE50D950F5008850C0E850D0F802F7464250EF50EE4350FF50F8032
:2001BF0022BF731FC3E50E950AE50F950B5008850A0E850B0F800CE50E249CF50EE50F34C6
:2001DF00FFF50FC00EC00F74DEC0E07408C0E07480C0E0120261E58124FBF58174FFC39583
:2001FF000EF5EC74FF950FF5FC2275A50253A4FC2275E1272275D98175DCC275D84022D294
:1E021F00AF75E60822C0E0C0D00510E4B51002051175E90075F970C2DFD0D0D0E03228
:20087C00456D62656464656420436F6E74726F6C2050756C736577696474682043616C696F
:20089C0062726174696F6E200D0A005072657373206620746F20696E637265617365207383
:2008BC00706565642C207072657373207220746F2072657665727365207370656564200DF6
:1008DC000A00447269766550573A2025750D0A0056
:06008000E478FFF6D8FD54
:20005E007900E94400601B7A009008F7780175AF00E493F2A308B8000205AFD9F4DAF2752B
:02007E00AFFFD2
:200086007800E84400600A790175AF00E4F309D8FC7800E84400600C7900900001E4F0A369
:0400A600D8FCD9FAAF
:20023D00C015858115120109D0152285823185833285F033E4F52EF52FF5308514349002C5
:20025D003D020338C015858115E51524FBFF8F34E4F52EF52FF530E51524FBF88631088696
:0D027D003208863390023D120338D015225E
:20028A00AF82C024C025C0261202978007C022C0238F8222158115811581052CE4B52C0290
:2002AA00052D22AF8274302FFF24C6500A74072FFF3000034307208F8202028AE582FFC48A
:2002CA00540FF582C0071202ADD007740F5FF5820202AD85821685271785281885291985E0
:2002EA002A1AAA2B751B20EA2AFAE51A235401FF8A064EFAE5172517F517E51833F518E569
:20030A001933F519E51A33F51AC3EA95164008EAC39516FA431701E51B14FF8F1B70C88571
:20032A001727851828851929851A2A8A2B22858222858323852E24852F25853026E4F52C65
:20034A00F52DAD31AE32AF338D828E838FF012085CFC74012DF531E43EF5328F33ECFF7092
:20036A000302083DBF25028003020835C201C202C203C204C205C206C207C208753500752E
:20038A0036007537FFAA31AB32AE338A828B838EF012085CFFA3AA82AB838A318B328E3396
:2003AA00BF25078F8212028A8098BF3000402DEF24C6402874FFB53712E53675F00AA42F16
:2003CA00FC24D0F53670C4D20280C0E53775F00AA4FC8F05ED2C24D0F53780AFBF2E0A741E
:2003EA00FFB537A775370080A2BF6100400CEF248540075307DFD2008002C200BF20028098
:20040A006DBF2B028063BF2D028059BF42028063BF43028068BF44030205DBBF4603020506
:20042A00F1BF4803020395BF49030205DBBF4A03020395BF4C028040BF4F030205E2BF50B4
:20044A0003020570BF5302805ABF5403020395BF55030205E7BF58030205ECBF5A03020347
:20046A00950205F5D201020395D203020395D204020395D206020395D20702039530060A70
:20048A00E53414F9893487078011E53424FEFE8E348E018705098706198D078F8212028A48
:2004AA000205FEE53424FDFE8E348E01870409870509870619198C278D288E298C828D837F
:2004CA008EF0120844AD82AE8374FFB537028D37200126C3ED95365020E536C39DF536AE2B
:2004EA00368E041EEC6010758220C006C00512028AD005D00680EA8E36AE378527828528D7
:20050A00838529F012085CFCFF602F8E041EC374808CF063F08095F050208F82C006C00569
:20052A0012028AD005D006AA27AB28AC290ABA00010B8A278B288C2980C12001030205FE9C
:20054A00C3ED953640030205FEE536C39DF536AE368E041EEC70030205FC758220C0061243
:20056A00028AD00680EBE53424FDFC8C348C01870209870309870419198A278B288C29AC7A
:20058A0029BC800040047F438014BC600040047F50800BBC400040047F4980027F588F8226
:2005AA00C00712028A75823A12028A75823012028A75827812028AD007BF4902800BBF50B0
:2005CA000280068528821202C68527821202C68023D20575350A801C753508801775350AB1
:2005EA008012753510800DD20880098F8212028A80028E3630085CE53424FCFE8E348E01A4
:20060A0087020987030987040987061919198A278B288C298E2A7527EC752808752980859E
:20062A00273985283A85293B74012539FAE4353AFCAE3B8A278C288E29853982853A838558
:20064A003BF012085CFEFF700302034C8F8212028A80CCE535700302034C75384130062D04
:20066A00E53414F9893487048C027B007C007E008A278B288C298E2A200566AA277B007CDB
:20068A00007E008A278B288C298E2A8054300721E53424FCFE8E348E0187020987030987A1
:2006AA00040987061919198A278B288C298E2A8030E53424FEFE8E348E0187040987061906
:2006CA00EE3395E0FBFA8C278E288B298A2A200510AA27AB287C007E008A278B288C298E3A
:2006EA002A300522E52A30E71BC3E49527FAE49528FBE49529FCE4952AFE8A278B288C29DD
:20070A008E2A8002C205D209A9387E00752B00853582C006C0011202DDD001D00620090B65
:20072A00E52BC4FCE7FB4CF7198002A72B0EB209E52745284529452A70D289388E05E5367D
:20074A007003753601200224200121ED04FEAC36C3EE9C5015758220C006C005C0041202EB
:20076A008AD004D005D0061C80E68C3630050E75822DC00512028AD00515368023ED602028
:20078A0030030E75822BC00512028AD0051536800F30040C758220C00512028AD005153600
:2007AA00200126AE368E041EC3ED9C502F3002067B307C0080047B207C008B82C006C005F7
:2007CA0012028AD005D00680DCC3ED95365008E536C39DF536800775360080028E36A93898
:2007EA008D068E051EED6026B20920090A09E7C4540FFD8D2B80078705740F5DF52B852BBB
:20080A0082C006C0011202ADD001D00680D420010302034CAE368E051EED700302034C75D9
:1A082A008220C00612028AD00680EB8F8212028A02034C852C82852D8322E3
:0B08EC003C4E4F20464C4F41543E0054
:18084400AA82AB8312085C6003A380F8C3E5829AF582E5839BF5832276
:0D005100758141120878E582600302004EBF
:1C085C0020F71430F6148883A88220F507E6A88375830022E280F7E49322E022AB
:040878007582002263
:00000001FF
