:03000000020006F5
:03005F0002000399
:030003000200DD1B
:2000620075B1677E007F01EE24FFFCEF34FFFD8C068D07EC4D70F0E5B130E7FB75B288228F
:20008200759850758920758DDCD28E438E10438780D29943A4012275FFDE75FFAD1200621E
:2000A20012008243E10443E34022AF8210990280FB8F992210980280FBAF998F82C0071202
:2000C20000ACD0078F82222098057582FF800BC2988599821200AC8599822212009975820E
:2000E200201200AC1200EF1200FF80FB2243A7D853A7FC75B00353A6FE75A0012230A01F73
:20010200D2B6D2B4D2B7C2B374D2C0E07407C0E07480C0E01201B71581158115818071D2ED
:20012200B6D2B3D2B4D2B720B02030B11DD2B6D2B3D2B4C2B774E5C0E07407C0E07480C0B1
:20014200E01201B715811581158130B02020B11DC2B6D2B3D2B4D2B774F6C0E07407C0E012
:200162007480C0E01201B715811581158120B02020B11DD2B6D2B3C2B4D2B77404C0E074E7
:1101820008C0E07480C0E01201B71581158115812282
:2007D2000D2042694C454420697320677265656E200A000D2042757A7A6572206973206FC9
:2007F2006E200A000D204C4544206973206F6E200A000D2042694C45442069732072656426
:03081200200A00B9
:06003500E478FFF6D8FD9F
:200013007900E94400601B7A00900820780175AF00E493F2A308B8000205AFD9F4DAF2754D
:02003300AFFF1D
:20003B007800E84400600A790175AF00E4F309D8FC7800E84400600C7900900001E4F0A3B4
:04005B00D8FCD9FAFA
:20019300C0098581091200ACD0092285823185833285F033E4F52EF52FF5308508349001FF
:2001B3009302028EC009858109E50924FBFF8F34E4F52EF52FF530E50924FBF886310886C6
:0D01D3003208863390019312028ED009226B
:2001E000AF82C024C025C0261201ED8007C022C0238F8222158115811581052CE4B52C02E6
:20020000052D22AF8274302FFF24C6500A74072FFF3000034307208F820201E0E582FFC4DF
:20022000540FF582C007120203D007740F5FF58202020385820A85270B85280C85290D850E
:200240002A0EAA2B750F20EA2AFAE50E235401FF8A064EFAE50B250BF50BE50C33F50CE573
:200260000D33F50DE50E33F50EC3EA950A4008EAC3950AFA430B01E50F14FF8F0F70C88588
:200280000B27850C28850D29850E2A8A2B22858222858323852E24852F25853026E4F52C40
:2002A000F52DAD31AE32AF338D828E838FF01207B2FC74012DF531E43EF5328F33ECFF70E8
:2002C00003020793BF2502800302078BC201C202C203C204C205C206C207C208753500752F
:2002E00036007537FFAA31AB32AE338A828B838EF01207B2FFA3AA82AB838A318B328E33EC
:20030000BF25078F821201E08098BF3000402DEF24C6402874FFB53712E53675F00AA42F6B
:20032000FC24D0F53670C4D20280C0E53775F00AA4FC8F05ED2C24D0F53780AFBF2E0A74C8
:20034000FFB537A775370080A2BF6100400CEF248540075307DFD2008002C200BF20028042
:200360006DBF2B028063BF2D028059BF42028063BF43028068BF4403020531BF460302055B
:2003800047BF48030202EBBF4903020531BF4A030202EBBF4C028040BF4F03020538BF50B3
:2003A000030204C6BF5302805ABF54030202EBBF550302053DBF5803020542BF5A0302029D
:2003C000EB02054BD2010202EBD2030202EBD2040202EBD2060202EBD2070202EB30060AC6
:2003E000E53414F9893487078011E53424FEFE8E348E018705098706198D078F821201E09E
:20040000020554E53424FDFE8E348E01870409870509870619198C278D288E298C828D83D3
:200420008EF012079AAD82AE8374FFB537028D37200126C3ED95365020E536C39DF536AE80
:20044000368E041EEC6010758220C006C0051201E0D005D00680EA8E36AE3785278285282C
:20046000838529F01207B2FCFF602F8E041EC374808CF063F08095F050208F82C006C005BF
:200480001201E0D005D006AA27AB28AC290ABA00010B8A278B288C2980C12001030205549C
:2004A000C3ED95364003020554E536C39DF536AE368E041EEC7003020552758220C0061242
:2004C00001E0D00680EBE53424FDFC8C348C01870209870309870419198A278B288C29ACD0
:2004E00029BC800040047F438014BC600040047F50800BBC400040047F4980027F588F82D1
:20050000C0071201E075823A1201E07582301201E07582781201E0D007BF4902800BBF5006
:2005200002800685288212021C85278212021C8023D20575350A801C753508801775350AAF
:200540008012753510800DD20880098F821201E080028E3630085CE53424FCFE8E348E01F9
:2005600087020987030987040987061919198A278B288C298E2A7527157528087529808520
:20058000273985283A85293B74012539FAE4353AFCAE3B8A278C288E29853982853A838503
:2005A0003BF01207B2FEFF70030202A28F821201E080CCE53570030202A275381530062D87
:2005C000E53414F9893487048C027B007C007E008A278B288C298E2A200566AA277B007C86
:2005E000007E008A278B288C298E2A8054300721E53424FCFE8E348E01870209870309874C
:20060000040987061919198A278B288C298E2A8030E53424FEFE8E348E01870409870619B0
:20062000EE3395E0FBFA8C278E288B298A2A200510AA27AB287C007E008A278B288C298EE4
:200640002A300522E52A30E71BC3E49527FAE49528FBE49529FCE4952AFE8A278B288C2987
:200660008E2A8002C205D209A9387E00752B00853582C006C001120233D001D00620090BBA
:20068000E52BC4FCE7FB4CF7198002A72B0EB209E52745284529452A70D289388E05E53628
:2006A0007003753601200224200121ED04FEAC36C3EE9C5015758220C006C005C004120197
:2006C000E0D004D005D0061C80E68C3630050E75822DC0051201E0D00515368023ED602028
:2006E00030030E75822BC0051201E0D0051536800F30040C758220C0051201E0D005153601
:20070000200126AE368E041EC3ED9C502F3002067B307C0080047B207C008B82C006C005A1
:200720001201E0D005D00680DCC3ED95365008E536C39DF536800775360080028E36A938ED
:200740008D068E051EED6026B20920090A09E7C4540FFD8D2B80078705740F5DF52B852B65
:2007600082C006C001120203D001D00680D42001030202A2AE368E051EED70030202A27584
:1A0780008220C0061201E0D00680EB8F821201E00202A2852C82852D83228F
:0B0815003C4E4F20464C4F41543E002B
:18079A00AA82AB831207B26003A380F8C3E5829AF582E5839BF58322CC
:0D00060075813B1207CEE582600302000306
:1C07B20020F71430F6148883A88220F507E6A88375830022E280F7E49322E02256
:0407CE00758200220E
:00000001FF
