:03000000020006F5
:03005F0002000399
:030003000200DD1B
:2000620075B1677E007F01EE24FFFCEF34FFFD8C068D07EC4D70F0E5B130E7FB75B288228F
:20008200759850758920758DDCD28E438E10438780D29943A4012275FFDE75FFAD1200621E
:2000A20012008243E10443E34022AF8210990280FB8F992210980280FBAF998F82C0071202
:2000C20000ACD0078F82222098057582FF800BC2988599821200AC8599822212009975820E
:2000E200201200AC743EC0E07408C0E07480C0E0120223158115811581745DC0E07408C078
:20010200E07480C0E01202231581158115817484C0E07408C0E07480C0E012022315811546
:2001220081158174A2C0E07408C0E07480C0E012022315811581158174C0C0E07408C0E057
:200142007480C0E01202231581158115811200B68582087453B5080512019280177446B505
:2001620008051201BE800D7457B508051201A880031201D474DCC0E07408C0E07480C0E0C0
:200182001202231581158115811200B60200FB227408C0E07409C0E07480C0E01202231564
:2001A2008115811581227422C0E07409C0E07480C0E012022315811581158122743BC0E01D
:2001C2007409C0E07480C0E0120223158115811581227463C0E07409C0E07480C0E0120215
:1D01E200231581158115817473C0E07409C0E07480C0E012022315811581158122C8
:20083E004C4954454320486F6D65776F726B2041737369676E6D656E7420320D0A0A0057BA
:20085E0068617420697320796F7572206661766F7269746520736561736F6E692054726F6B
:20087E00793F200D0A0020202020456E74657220616E2027532720666F722053756D6D65AF
:20089E00720D0A0020202020456E74657220616E2027572720666F722057696E7465720D72
:2008BE000A0020202020456E74657220616E2027462720666F722046616C6C0D0A00507210
:2008DE0065737320616E79206B657920746F207069636B206120646966666572656E74209C
:2008FE00736561736F6E200D0A0047726561742074696D6520666F722068696B696E672E29
:20091E00200D0A00596F75206D757374206C696B6520736B69696E672E200D0A00497420B0
:20093E006D75737420626520746865206C6561766573206368616E67696E6720636F6C6FBC
:20095E0072200D0A004E6F2073757270726973652E200D0A002020202045766572796F6EA9
:12097E0065206C696B657320737072696E67200D0A00E0
:06003500E478FFF6D8FD9F
:200013007900E94400601B7A0090099B780175AF00E493F2A308B8000205AFD9F4DAF275D1
:02003300AFFF1D
:20003B007800E84400600A790175AF00E4F309D8FC7800E84400600C7900900001E4F0A3B4
:04005B00D8FCD9FAFA
:2001FF00C00B85810B1200ACD00B2285823185833285F033E4F52EF52FF530850A3490018B
:20021F00FF0202FAC00B85810BE50B24FBFF8F34E4F52EF52FF530E50B24FBF88631088679
:0D023F00320886339001FF1202FAD00B2224
:20024C00AF82C024C025C0261202598007C022C0238F8222158115811581052CE4B52C020C
:20026C00052D22AF8274302FFF24C6500A74072FFF3000034307208F8202024CE582FFC406
:20028C00540FF582C00712026FD007740F5FF58202026F85820C85270D85280E85290F85C2
:2002AC002A10AA2B751120EA2AFAE510235401FF8A064EFAE50D250DF50DE50E33F50EE5F7
:2002CC000F33F50FE51033F510C3EA950C4008EAC3950CFA430D01E51114FF8F1170C8850A
:2002EC000D27850E28850F2985102A8A2B22858222858323852E24852F25853026E4F52CCC
:20030C00F52DAD31AE32AF338D828E838FF012081EFC74012DF531E43EF5328F33ECFF700E
:20032C00030207FFBF250280030207F7C201C202C203C204C205C206C207C20875350075EA
:20034C0036007537FFAA31AB32AE338A828B838EF012081EFFA3AA82AB838A318B328E3312
:20036C00BF25078F8212024C8098BF3000402DEF24C6402874FFB53712E53675F00AA42F92
:20038C00FC24D0F53670C4D20280C0E53775F00AA4FC8F05ED2C24D0F53780AFBF2E0A745C
:2003AC00FFB537A775370080A2BF6100400CEF248540075307DFD2008002C200BF200280D6
:2003CC006DBF2B028063BF2D028059BF42028063BF43028068BF440302059DBF4603020583
:2003EC00B3BF4803020357BF490302059DBF4A03020357BF4C028040BF4F030205A4BF5029
:20040C0003020532BF5302805ABF5403020357BF55030205A9BF58030205AEBF5A0302037D
:20042C00570205B7D201020357D203020357D204020357D206020357D20702035730060A60
:20044C00E53414F9893487078011E53424FEFE8E348E018705098706198D078F8212024CC4
:20046C000205C0E53424FDFE8E348E01870409870509870619198C278D288E298C828D83FB
:20048C008EF0120806AD82AE8374FFB537028D37200126C3ED95365020E536C39DF536AEA7
:2004AC00368E041EEC6010758220C006C00512024CD005D00680EA8E36AE37852782852853
:2004CC00838529F012081EFCFF602F8E041EC374808CF063F08095F050208F82C006C005E6
:2004EC0012024CD005D006AA27AB28AC290ABA00010B8A278B288C2980C12001030205C057
:20050C00C3ED953640030205C0E536C39DF536AE368E041EEC70030205BE758220C00612FD
:20052C00024CD00680EBE53424FDFC8C348C01870209870309870419198A278B288C29ACF6
:20054C0029BC800040047F438014BC600040047F50800BBC400040047F4980027F588F8264
:20056C00C00712024C75823A12024C75823012024C75827812024CD007BF4902800BBF50E6
:20058C000280068528821202888527821202888023D20575350A801C753508801775350A6B
:2005AC008012753510800DD20880098F8212024C80028E3630085CE53424FCFE8E348E0120
:2005CC0087020987030987040987061919198A278B288C298E2A7527907528097529808538
:2005EC00273985283A85293B74012539FAE4353AFCAE3B8A278C288E29853982853A838597
:20060C003BF012081EFEFF700302030E8F8212024C80CCE535700302030E75381730062D64
:20062C00E53414F9893487048C027B007C007E008A278B288C298E2A200566AA277B007C19
:20064C00007E008A278B288C298E2A8054300721E53424FCFE8E348E0187020987030987DF
:20066C00040987061919198A278B288C298E2A8030E53424FEFE8E348E0187040987061944
:20068C00EE3395E0FBFA8C278E288B298A2A200510AA27AB287C007E008A278B288C298E78
:2006AC002A300522E52A30E71BC3E49527FAE49528FBE49529FCE4952AFE8A278B288C291B
:2006CC008E2A8002C205D209A9387E00752B00853582C006C00112029FD001D00620090BE2
:2006EC00E52BC4FCE7FB4CF7198002A72B0EB209E52745284529452A70D289388E05E536BC
:20070C007003753601200224200121ED04FEAC36C3EE9C5015758220C006C005C004120229
:20072C004CD004D005D0061C80E68C3630050E75822DC00512024CD00515368023ED6020E2
:20074C0030030E75822BC00512024CD0051536800F30040C758220C00512024CD0051536BA
:20076C00200126AE368E041EC3ED9C502F3002067B307C0080047B207C008B82C006C00535
:20078C0012024CD005D00680DCC3ED95365008E536C39DF536800775360080028E36A93814
:2007AC008D068E051EED6026B20920090A09E7C4540FFD8D2B80078705740F5DF52B852BF9
:2007CC0082C006C00112026FD001D00680D420010302030EAE368E051EED700302030E75D2
:1A07EC008220C00612024CD00680EB8F8212024C02030E852C82852D8322DC
:0B0990003C4E4F20464C4F41543E00AF
:18080600AA82AB8312081E6003A380F8C3E5829AF582E5839BF58322F2
:0D00060075813B12083AE582600302000399
:1C081E0020F71430F6148883A88220F507E6A88375830022E280F7E49322E022E9
:04083A0075820022A1
:00000001FF
