:0400000002001132B7
:03000B00020F1CC5
:0300740002000E79
:03000E000200F2FB
:2000770075B1677E007F01EE24FFFCEF34FFFD8C068D07EC4D70F0E5B130E7FB75B288227A
:20009700759850758920758DDCD28E438E10438780D29943A4012275FFDE75FFAD120077F4
:2000B70012009743E10443E34022AF8210990280FB8F992210980280FBAF998F82C00712D8
:2000D70000C1D0078F82222098057582FF800BC2988599821200C1859982221200AE7582BA
:2000F700201200C1120EEB120F07120F0B120F2DD28C30A00930A50620B103120E8E20A0F5
:200117000930A50620B10312013C30A00920A50620B1031203C120A0D920A5D620B1D31289
:20013700059080CE22120E8E758201120F37E582F52475F003A424FAF525E435F0F5268538
:2001570025828526831211ACAC82AD83AEF0FFC004C005C006C00790CCCD75F0AC743E12D5
:200177000F94AC82AD83AEF0FFE58124FCF5818C828D838EF0EF1211B8858227858328E426
:20019700F522F523C2B6C3E5229527E523952840F5D2B6E4F522F523C2B5C3E5229527E5A4
:2001B70023952840F5D2B5E4F522F523C2B2C3E5229527E523952840F5D2B2E4F522F523EE
:2001D700C2A1C3E5229527E523952840F5D2A1E4F522F523C2B6C3E5229527E5239528409C
:2001F700F5D2B6E4F522F523C2A1C3E5229527E523952840F5D2A1E4F522F523C2B2C3E5D3
:20021700229527E523952840F5D2B2E4F522F523C2B5C3E5229527E523952840F5D2B57565
:200237008201120F37E582F52475F003A424FAF525E435F0F5268525828526831211ACAC0F
:2002570082AD83AEF0FFC004C005C006C00790CCCD75F0AC743E120F94AC82AD83AEF0FF86
:20027700E58124FCF5818C828D838EF0EF1211B8858227858328E4F522F523C2B6C3E52252
:200297009527E523952840F5D2B6E4F522F523C2B2C3E5229527E523952840F5D2B2E4F5A5
:2002B70022F523C2A1C3E5229527E523952840F5D2A1E4F522F523C2B5C3E5229527E5237F
:2002D700952840F5D2B5E4F522F523C2A1C3E5229527E523952840F5D2A1E4F522F523C250
:2002F700B2C3E5229527E523952840F5D2B2E4F522F523C2B6C3E5229527E523952840F526
:20031700D2B6758201120F37E582F52475F003A424FAF525E435F0F526852582852683129A
:2003370011ACAC82AD83AEF0FFC004C005C006C00790CCCD75F0AC743E120F94AC82AD83D9
:20035700AEF0FFE58124FCF5818C828D838EF0EF1211B8858227858328E4F522F523C2A1B3
:20037700C3E5229527E523952840F5D2A1E4F522F523C2B5C3E5229527E523952840F5D297
:20039700B5E4F522F523C2A1C3E5229527E523952840F5D2A1E4F522F523C2B5C3E522953F
:2003B70027E523952840F5D2B522120E8EE4F52DF52EF529F52AF52BF52CF52FF530C3E516
:2003D7002D9403E52E940040030204AE758201120F37E582F52475F010A424E8F52574031E
:2003F70035F0F5268525828526831211ACAC82AD83AEF0FFC004C005C006C00790CCCD75CE
:20041700F0AC743E120F94AC82AD83AEF0FFE58124FCF5818C828D838EF0EF1211B885825E
:2004370027858328E4F522F523C2A1C3E5229527E5239528502020A211120E9B30A2FD12AE
:200457000E9B0529E4B52902052A20B0DE752F02753000020541D2A1E4F522F523C2B5C3BA
:20047700E5229527E5239528502020B011120E9B30B0FD120E9B052BE4B52B02052C20A250
:20049700DE752F01753000020569D2B5052DE4B52D02052E0203D5C029C02A7430C0E07494
:2004B70019C0E07480C0E0121236E58124FBF581C02BC02C7448C0E07419C0E07480C0E08F
:2004D700121236E58124FBF581C3E52B9529E52C952A501BC2B3D2B47460C0E07419C0E048
:2004F7007480C0E0121236158115811581803BC3E529952BE52A952C501BD2B3C2B47472CD
:20051700C0E07419C0E07480C0E012123615811581158180157484C0E07419C0E07480C039
:20053700E01212361581158115817402B52F06E4B5300280028041748CC0E07419C0E074F9
:2005570080C0E0121236158115811581C2B3D2B480267401B52F0614B530028002801974BE
:20057700CAC0E07419C0E07480C0E0121236158115811581D2B3C2B422120E8EE4F539F54B
:200597003A758201120F37E582F52475F003A424FAF525E435F0F526852582852683121155
:2005B700ACAC82AD83AEF0FFC004C005C006C00790CCCD75F0AC743E120F94AC82AD83AEBA
:2005D700F0FFE58124FCF5818C828D838EF0EF1211B8858227858328753301E4F534F53575
:2005F700F536F537F538F539F53A1206ABC035C0367408C0E0741AC0E07480C0E01212361D
:20061700E58124FBF581C037C038741FC0E0741AC0E07480C0E0121236E58124FBF581C3CC
:20063700E5359537E5369538501BC2B3D2B47460C0E07419C0E07480C0E012123615811535
:20065700811581803BC3E5379535E5389536501BD2B3C2B47472C0E07419C0E07480C0E073
:2006770012123615811581158180157484C0E07419C0E07480C0E01212361581158115813D
:2006970022120F49750E04750F00121867858231858332227401B5330614B53402800302A0
:2006B7000A72120698E531453260030207A5C3E5399405E53A940040030207A5E4F522F54B
:2006D70023120E8EC2B6C3E5229527E523952840F520B11330B01030A30D30A20A120E9BEF
:2006F700E4F533F53480AD0535E4B535020536E4F522F523120E8EC2B5C3E5229527E52376
:20071700952840F530B11420B01130A30E30A20B120E9BE4F533F5340206AB0535E4B53591
:20073700020536E4F522F523120E8EC2B2C3E5229527E523952840F530B11430B01120A307
:200757000E30A20B120E9BE4F533F5340206AB0535E4B535020536E4F522F523120E8EC22C
:20077700A1C3E5229527E523952840F530B11430B01130A30E20A20B120E9BE4F533F534BD
:200797000206AB0535E4B5350205360206BC7401B5310614B532028003020894C3E5399492
:2007B70005E53A94004003020894E4F522F523120E8EC2B5C3E5229527E523952840F530A1
:2007D700B11420B01130A30E30A20B120E9BE4F533F5340206AB0535E4B535020536E4F5DD
:2007F70022F523120E8EC2B2C3E5229527E523952840F530B11430B01120A30E30A20B1260
:200817000E9BE4F533F5340206AB0535E4B535020536E4F522F523120E8EC2A1C3E5229568
:2008370027E523952840F530B11430B01130A30E20A20B120E9BE4F533F5340206AB05350F
:20085700E4B535020536E4F522F523120E8EC2B6C3E5229527E523952840F520B11430B0F8
:200877001130A30E30A20B120E9BE4F533F5340206AB0535E4B5350205360207A57402B5D1
:200897003106E4B532028003020983C3E5399405E53A94004003020983E4F522F523120EFB
:2008B7008EC2B2C3E5229527E523952840F530B11430B01120A30E30A20B120E9BE4F53344
:2008D700F5340206AB0535E4B535020536E4F522F523120E8EC2A1C3E5229527E523952871
:2008F70040F530B11430B01130A30E20A20B120E9BE4F533F5340206AB0535E4B535020566
:2009170036E4F522F523120E8EC2B6C3E5229527E523952840F520B11430B01130A30E30EA
:20093700A20B120E9BE4F533F5340206AB0535E4B535020536E4F522F523120E8EC2B5C310
:20095700E5229527E523952840F530B11420B01130A30E30A20B120E9BE4F533F534020637
:20097700AB0535E4B5350205360208947403B53106E4B532028003020A72C3E5399405E542
:200997003A94004003020A72E4F522F523120E8EC2A1C3E5229527E523952840F530B11418
:2009B70030B01130A30E20A20B120E9BE4F533F5340206AB0535E4B535020536E4F522F5A9
:2009D70023120E8EC2B6C3E5229527E523952840F520B11430B01130A30E30A20B120E9BE8
:2009F700E4F533F5340206AB0535E4B535020536E4F522F523120E8EC2B5C3E5229527E510
:200A170023952840F530B11420B01130A30E30A20B120E9BE4F533F5340206AB0535E4B5A0
:200A370035020536E4F522F523120E8EC2B2C3E5229527E523952840F530B11430B0112072
:200A5700A30E30A20B120E9BE4F533F5340206AB0535E4B535020536020983E5334534608A
:200A770003020E8D120698E53145326003020B7EE4F522F523120E8EC2B6C3E5229527E5F0
:200A970023952840F520B11D30B01A30A31730A214120E9B7533017534000539E4B5390253
:200AB700053A0206AB0537E4B537020538E4F522F523120E8EC2A1C3E5229527E523952873
:200AD70040F530B11D30B01A30A31720A214120E9B7533017534000539E4B53902053A02B2
:200AF70006AB0537E4B537020538E4F522F523120E8EC2B2C3E5229527E523952840F530FE
:200B1700B11D30B01A20A31730A214120E9B7533017534000539E4B53902053A0206AB0520
:200B370037E4B537020538E4F522F523120E8EC2B5C3E5229527E523952840F530B11D2082
:200B5700B01A30A31730A214120E9B7533017534000539E4B53902053A0206AB0537E4B5FE
:200B770037020538020A7E7401B5310614B532028003020C83E4F522F523120E8EC2B5C3F1
:200B9700E5229527E523952840F530B11D20B01A30A31730A214120E9B75330175340005B7
:200BB70039E4B53902053A0206AB0537E4B537020538E4F522F523120E8EC2B6C3E522953C
:200BD70027E523952840F520B11D30B01A30A31730A214120E9B7533017534000539E4B541
:200BF7003902053A0206AB0537E4B537020538E4F522F523120E8EC2A1C3E5229527E523B4
:200C1700952840F530B11D30B01A30A31720A214120E9B7533017534000539E4B5390205EF
:200C37003A0206AB0537E4B537020538E4F522F523120E8EC2B2C3E5229527E523952840A5
:200C5700F530B11D30B01A20A31730A214120E9B7533017534000539E4B53902053A02066A
:200C7700AB0537E4B537020538020B7E7402B53106E4B532028003020D88E4F522F523126E
:200C97000E8EC2B2C3E5229527E523952840F530B11D30B01A20A31730A214120E9B753392
:200CB700017534000539E4B53902053A0206AB0537E4B537020538E4F522F523120E8EC2A1
:200CD700B5C3E5229527E523952840F530B11D20B01A30A31730A214120E9B753301753403
:200CF700000539E4B53902053A0206AB0537E4B537020538E4F522F523120E8EC2B6C3E5AD
:200D1700229527E523952840F520B11D30B01A30A31730A214120E9B7533017534000539E1
:200D3700E4B53902053A0206AB0537E4B537020538E4F522F523120E8EC2A1C3E5229527E1
:200D5700E523952840F530B11D30B01A30A31720A214120E9B7533017534000539E4B539AD
:200D770002053A0206AB0537E4B537020538020C837403B53106E4B532028003020A72E477
:200D9700F522F523120E8EC2A1C3E5229527E523952840F530B11D30B01A30A31720A214C4
:200DB700120E9B7533017534000539E4B53902053A0206AB0537E4B537020538E4F522F5D0
:200DD70023120E8EC2B2C3E5229527E523952840F530B11D30B01A20A31730A214120E9BC4
:200DF7007533017534000539E4B53902053A0206AB0537E4B537020538E4F522F523120E08
:200E17008EC2B5C3E5229527E523952840F530B11D20B01A30A31730A214120E9B7533011A
:200E37007534000539E4B53902053A0206AB0537E4B537020538E4F522F523120E8EC2B66A
:200E5700C3E5229527E523952840F520B11D30B01A30A31730A214120E9B75330175340036
:200E77000539E4B53902053A0206AB0537E4B537020538020D8822D2B6D2B5D2B2D2A1D27B
:200E9700B3D2B4228522828523831211ACAC82AD83AEF0FFE4C0E0C0E074D8C0E07440C03E
:200EB700E08C828D838EF0EF121153AC82AD83AEF0FFE58124FCF5818C828D838EF0EF12A6
:200ED70011B885823B85833CC3E522953BE523953C40F52253BDFD53A5FD43900253A6D240
:200EF70043A60243A02D53A7FC43A77C43B0032243A88222438E085389F0438901C28CE439
:200F1700F58AF58C22C0E0C0D00522E4B522020523D0D0D0E03275D10375AA8043AB0122E1
:120F37008582AC53AADF43AA10E5AA30E5FB859C8222B8
:20193000506C61796572203120707265737365733A202564200D0A00506C617965722032DB
:2019500020707265737365733A202564200D0A00506C6179657220312077696E7321200D4B
:201970000A00506C6179657220322077696E7321200D0A0054696521200D0A00506C617945
:20199000657220312077696E73206265636175736520506C6179657220322077656E742059
:2019B000647572696E67207468652077726F6E67207475726E2E200D0A00506C6179657225
:2019D00020322077696E73206265636175736520506C6179657220312077656E7420647517
:2019F00072696E67207468652077726F6E67207475726E2E200D0A00506C6179657220316D
:201A1000206D69737365733A202564200D0A00506C617965722032206D69737365733A201B
:061A30002564200D0A00F0
:0A006A00750801E4F509F50AF50B2D
:200F490085080E85090F850A10850B11904E6D75F0C67441121098AC82AD83AEF0FF743983
:200F69002CF50874303DF509E43EF50AE43FF50BAC0AAD0B8C82747F5DF58322AE82AF8354
:0B0F89008E088F09750A00750B00220E
:200F9400121037BC00030211E4EF60FA30D502B2D1E583B4FF030211FAE582B4FF03021100
:200FB400FA258340072482400B0211E424831450030211FAF582EA8DF0A4A8F0EA8EF0A40B
:200FD40028F8E435F0F9EB8DF0A428E935F0F9E433CA8FF0A429F9EA35F0FAEBF88EF0A46C
:200FF40029F9EA35F0FAE433FBEC8DF0A429F9EA35F0FAE43BFBE88FF0A42AFAEB35F0FB14
:20101400E433CCFD8EF0A42AFAEB35F0FBE43CFCED8FF0A42BFBEC35F0FC20E7031210659B
:031034000211C3E3
:20103700AA82AB83A2F73392D1F5826002D2F7ACF0E58124F9F8E6FD08E6FE0886F008E61C
:0E105700A2F73392D5F5836002D2F7AFF022F4
:06004000E478FFF6D8FD94
:201065007804EC7011E58224F8500AF582E4C9CACBFCD8EF22EC7820058220E713D582018A
:1310850022C3E933F9EA33FAEB33FBEC33FCD8EA15822298
:20001E007900E94400601B7A00901A41780175AF00E493F2A308B8000205AFD9F4DAF2750F
:02003E00AFFF12
:20109800AAF0FBE582850EF0A4FCADF0E583850EF0A42DFDE435F0FEE582850FF0A42DFD03
:2010B800E5F03EFEE433FFEA850EF0A42EFEE5F03FFFE583850FF0A42EFEE5F03FFFE5826B
:2010D8008510F0A42EFEE5F03FFFEB850EF0A42FFFEA850FF0A42FFFE5838510F0A42FFF51
:0E10F800E5828511F0A42F8EF08D838C82226C
:20110600E50E450F60467A01E50E25E0F50EE50F334012F50FE582950EE583950F40030A86
:2011260080E6C3E50F13F50FE50E13F50EC3E582950EF5F0E583950F4005F58385F082C337
:0D114600E50F13F50FE50E13F50EDAE122AB
:200046007800E84400600A790175AF00E4F309D8FC7800E84400600C7900900001E4F0A3A9
:04006600D8FCD9FAEF
:201153001210377900E583B58202800D5003121819E583C395821218B0E5D0C465D020E11B
:2011730017EA2DFAEB3EFBEC3FFC500974011218B0EC4480FC0211C3C3EA9DFAEB9EFBEC0B
:191193009FFC500FC3E499F9E49AFAE49BFBE49CFCB2D11210650211C3C2
:0C11AC00E4AC83AB82FAF9748E0218A642
:0B11B8007F8E1218F9F58385F082226B
:2011C300B98003EA13B34010EA2401FAE43BFBE43CFC50047C800582BC000EBB000BBA0070
:2011E30008E4F5F0F583F58222A2D1E582138CF092F78B838A8222E4F583F58275F080F430
:0F120300A2D11322E4F583F58275F0C0747F2227
:20121200C00D85810D1200C1D00D2285824E85834F85F050E4F54BF54CF54D850C5190126E
:201232001202130DC00D85810DE50D24FBFF8F51E4F54BF54CF54DE50D24FBF8864E088686
:0D1252004F08865090121212130DD00D227D
:20125F00AF82C041C042C04312126C8007C03FC0408F82221581158115810549E4B54902FB
:20127F00054A22AF8274302FFF24C6500A74072FFF3000034307208F8202125FE582FFC4A3
:20129F00540FF582C007121282D007740F5FF58202128285820E85440F85451085461185FA
:2012BF004712AA48751320EA2AFAE512235401FF8A064EFAE50F250FF50FE51033F510E58A
:2012DF001133F511E51233F512C3EA950E4008EAC3950EFA430F01E51314FF8F1370C885D5
:2012FF000F448510458511468512478A482285823F858340854B41854C42854D43E4F5490B
:20131F00F54AAD4EAE4FAF508D828E838FF012184BFC74012DF54EE43EF54F8F50ECFF70E3
:20133F0003021812BF2502800302180AC201C202C203C204C205C206C207C2087552007562
:20135F0053007554FFAA4EAB4FAE508A828B838EF012184BFFA3AA82AB838A4E8B4F8E50CA
:20137F00BF25078F8212125F8098BF3000402DEF24C6402874FFB55412E55375F00AA42F12
:20139F00FC24D0F55370C4D20280C0E55475F00AA4FC8F05ED2C24D0F55480AFBF2E0A74E2
:2013BF00FFB554A775540080A2BF6100400CEF248540075307DFD2008002C200BF20028079
:2013DF006DBF2B028063BF2D028059BF42028063BF43028068BF44030215B0BF460302152D
:2013FF00C6BF480302136ABF49030215B0BF4A0302136ABF4C028040BF4F030215B7BF5067
:20141F0003021545BF5302805ABF540302136ABF55030215BCBF58030215C1BF5A030213BE
:20143F006A0215CAD20102136AD20302136AD20402136AD20602136AD20702136A30060A58
:20145F00E55114F9895187078011E55124FEFE8E518E018705098706198D078F8212125F0A
:20147F000215D3E55124FDFE8E518E01870409870509870619198C448D458E468C828D8324
:20149F008EF0121833AD82AE8374FFB554028D54200126C3ED95535020E553C39DF553AEB6
:2014BF00538E041EEC6010758220C006C00512125FD005D00680EA8E53AE5485448285457C
:2014DF00838546F012184BFCFF602F8E041EC374808CF063F08095F050208F82C006C00569
:2014FF0012125FD005D006AA44AB45AC460ABA00010B8A448B458C4680C12001030215D340
:20151F00C3ED955340030215D3E553C39DF553AE538E041EEC70030215D1758220C0061220
:20153F00125FD00680EBE55124FDFC8C518C01870209870309870419198A448B458C46AC1F
:20155F0046BC800040047F438014BC600040047F50800BBC400040047F4980027F588F8224
:20157F00C00712125F75823A12125F75823012125F75827812125FD007BF4902800BBF5037
:20159F0002800685458212129B85448212129B8023D20575520A801C755208801775520A71
:2015BF008012755210800DD20880098F8212125F80028E5330085CE55124FCFE8E518E0166
:2015DF0087020987030987040987061919198A448B458C468E4775443675451A7546808593
:2015FF00445685455785465874012556FAE43557FCAE588A448C458E4685568285578385DE
:20161F0058F012184BFEFF70030213218F8212125F80CCE552700302132175551930062D42
:20163F00E55114F9895187048C027B007C007E008A448B458C468E47200566AA447B007C2B
:20165F00007E008A448B458C468E478054300721E55124FCFE8E518E01870209870309870E
:20167F00040987061919198A448B458C468E478030E55124FEFE8E518E0187040987061973
:20169F00EE3395E0FBFA8C448E458B468A47200510AA44AB457C007E008A448B458C468E50
:2016BF0047300522E54730E71BC3E49544FAE49545FBE49546FCE49547FE8A448B458C46F3
:2016DF008E478002C205D209A9557E00754800855282C006C0011212B2D001D00620090B28
:2016FF00E548C4FCE7FB4CF7198002A7480EB209E54445454546454770D289558E05E553B1
:20171F007003755301200224200121ED04FEAC53C3EE9C5015758220C006C005C0041212BC
:20173F005FD004D005D0061C80E68C5330050E75822DC00512125FD00515538023ED60204F
:20175F0030030E75822BC00512125FD0051553800F30040C758220C00512125FD005155317
:20177F00200126AE538E041EC3ED9C502F3002067B307C0080047B207C008B82C006C005F5
:20179F0012125FD005D00680DCC3ED95535008E553C39DF553800775530080028E53A95520
:2017BF008D068E051EED6026B20920090A09E7C4540FFD8D4880078705740F5DF54885487F
:2017DF0082C006C001121282D001D00680D4200103021321AE538E051EED70030213217529
:1A17FF008220C00612125FD00680EB8F8212125F021321854982854A832216
:0B1A36003C4E4F20464C4F41543E00F8
:1A181900E582C583F582A2D133A2D592D11392D5ECCFFCEBCEFBEACDFA2257
:18183300AA82AB8312184B6003A380F8C3E5829AF582E5839BF5832278
:0D0011007581581218F3E582600302000E9D
:1C184B0020F71430F6148883A88220F507E6A88375830022E280F7E49322E022AC
:20186700C2D5E58330E70DD2D5E4C39582F582E49583F583E50F30E70BE4C3950EF50EE4A7
:16188700950FF50F12110630D50BE4C39582F582E49583F583229F
:13189D00FCABF0AA83A982749EC2D1F5821210650211C3D0
:2018B0006040F82582500274FFF582E824F8501ECCCBCAF9E4CC24F85014CBCAF9E4CB2440
:2018D000F8500BCAF9E4CA24F8500379002224086010F8C3EC13FCEB13FBEA13FAE913F9F3
:0318F000D8F1220A
:0418F30075820022D8
:2018F7007F9E12191E30D1030211E4C3EF9582500974FFF5F0F583F5822279001218B08909
:07191700828A838BF0EC22B1
:12191E00AA82AB83A2F73392D1F5826002D2F7ACF022CE
:00000001FF
