:03000000020006F5
:03005F0002000399
:030003000200DD1B
:2000620075B1677E007F01EE24FFFCEF34FFFD8C068D07EC4D70F0E5B130E7FB75B288228F
:20008200759850758920758DDCD28E438E10438780D29943A4012275FFDE75FFAD1200621E
:2000A20012008243E10443E34022AF8210990280FB8F992210980280FBAF998F82C0071202
:2000C20000ACD0078F82222098057582FF800BC2988599821200AC8599822212009975820E
:2000E200201200AC1200FFC3E4950874808509F063F08095F050ED12014880E82274FCC0AF
:20010200E07407C0E07480C0E01201E11581158115811200B685820D7431B50D0512013409
:20012200800F7432B50D0512013E8005E4F508F50922750C1275081275090022750C0E7524
:20014200080E75090122C008C009742EC0E07408C0E07480C0E01201E1E58124FBF5817400
:200162004DC0E07408C0E07480C0E01201E1158115811581E4F50AF50BC3E508950AE5090A
:200182006480850BF063F08095F0402E850A0CAE0C7F00C006C007C006C007745EC0E0745F
:1B01A20008C0E07480C0E01201E1E58124F9F581050AE4B50AC3050B80BF2233
:2007FC000D0A20656E746572203120746F20636F756E7420746F203138206F722032207478
:20081C006F20636F756E7420746F20323730200D0A004D6178696D756D20636F756E7420CA
:20083C0076616C7565206973202575200A0A0D2000446563696D616C200920686578200A01
:11085C000D002020257520090920202578200A0D005E
:06003500E478FFF6D8FD9F
:200013007900E94400601B7A00900878780175AF00E493F2A308B8000205AFD9F4DAF275F5
:02003300AFFF1D
:20003B007800E84400600A790175AF00E4F309D8FC7800E84400600C7900900001E4F0A3B4
:04005B00D8FCD9FAFA
:2001BD00C00F85810F1200ACD00F2285823185833285F033E4F52EF52FF530850E349001BD
:2001DD00BD0202B8C00F85810FE50F24FBFF8F34E4F52EF52FF530E50F24FBF88631088630
:0D01FD00320886339001BD1202B8D00F22E7
:20020A00AF82C024C025C0261202178007C022C0238F8222158115811581052CE4B52C0290
:20022A00052D22AF8274302FFF24C6500A74072FFF3000034307208F8202020AE582FFC48A
:20024A00540FF582C00712022DD007740F5FF58202022D8582108527118528128529138578
:20026A002A14AA2B751520EA2AFAE514235401FF8A064EFAE5112511F511E51233F512E519
:20028A001333F513E51433F514C3EA95104008EAC39510FA431101E51514FF8F1570C88528
:2002AA00112785122885132985142A8A2B22858222858323852E24852F25853026E4F52CFE
:2002CA00F52DAD31AE32AF338D828E838FF01207DCFC74012DF531E43EF5328F33ECFF7094
:2002EA00030207BDBF250280030207B5C201C202C203C204C205C206C207C20875350075B1
:20030A0036007537FFAA31AB32AE338A828B838EF01207DCFFA3AA82AB838A318B328E3397
:20032A00BF25078F8212020A8098BF3000402DEF24C6402874FFB53712E53675F00AA42F16
:20034A00FC24D0F53670C4D20280C0E53775F00AA4FC8F05ED2C24D0F53780AFBF2E0A749E
:20036A00FFB537A775370080A2BF6100400CEF248540075307DFD2008002C200BF20028018
:20038A006DBF2B028063BF2D028059BF42028063BF43028068BF440302055BBF4603020507
:2003AA0071BF4803020315BF490302055BBF4A03020315BF4C028040BF4F03020562BF50B5
:2003CA00030204F0BF5302805ABF5403020315BF5503020567BF580302056CBF5A030203C9
:2003EA0015020575D201020315D203020315D204020315D206020315D20702031530060A71
:20040A00E53414F9893487078011E53424FEFE8E348E018705098706198D078F8212020A48
:20042A0002057EE53424FDFE8E348E01870409870509870619198C278D288E298C828D837F
:20044A008EF01207C4AD82AE8374FFB537028D37200126C3ED95365020E536C39DF536AE2C
:20046A00368E041EEC6010758220C006C00512020AD005D00680EA8E36AE378527828528D7
:20048A00838529F01207DCFCFF602F8E041EC374808CF063F08095F050208F82C006C0056B
:2004AA0012020AD005D006AA27AB28AC290ABA00010B8A278B288C2980C120010302057E1D
:2004CA00C3ED9536400302057EE536C39DF536AE368E041EEC700302057C758220C00612C4
:2004EA00020AD00680EBE53424FDFC8C348C01870209870309870419198A278B288C29AC7B
:20050A0029BC800040047F438014BC600040047F50800BBC400040047F4980027F588F82A6
:20052A00C00712020A75823A12020A75823012020A75827812020AD007BF4902800BBF5030
:20054A000280068528821202468527821202468023D20575350A801C753508801775350A31
:20056A008012753510800DD20880098F8212020A80028E3630085CE53424FCFE8E348E01A4
:20058A0087020987030987040987061919198A278B288C298E2A75276D752808752980859E
:2005AA00273985283A85293B74012539FAE4353AFCAE3B8A278C288E29853982853A8385D9
:2005CA003BF01207DCFEFF70030202CC8F8212020A80CCE53570030202CC75381B30062DAE
:2005EA00E53414F9893487048C027B007C007E008A278B288C298E2A200566AA277B007C5C
:20060A00007E008A278B288C298E2A8054300721E53424FCFE8E348E018702098703098721
:20062A00040987061919198A278B288C298E2A8030E53424FEFE8E348E0187040987061986
:20064A00EE3395E0FBFA8C278E288B298A2A200510AA27AB287C007E008A278B288C298EBA
:20066A002A300522E52A30E71BC3E49527FAE49528FBE49529FCE4952AFE8A278B288C295D
:20068A008E2A8002C205D209A9387E00752B00853582C006C00112025DD001D00620090B66
:2006AA00E52BC4FCE7FB4CF7198002A72B0EB209E52745284529452A70D289388E05E536FE
:2006CA007003753601200224200121ED04FEAC36C3EE9C5015758220C006C005C00412026C
:2006EA000AD004D005D0061C80E68C3630050E75822DC00512020AD00515368023ED6020A9
:20070A0030030E75822BC00512020AD0051536800F30040C758220C00512020AD005153680
:20072A00200126AE368E041EC3ED9C502F3002067B307C0080047B207C008B82C006C00577
:20074A0012020AD005D00680DCC3ED95365008E536C39DF536800775360080028E36A93898
:20076A008D068E051EED6026B20920090A09E7C4540FFD8D2B80078705740F5DF52B852B3B
:20078A0082C006C00112022DD001D00680D42001030202CCAE368E051EED70030202CC75DC
:1A07AA008220C00612020AD00680EB8F8212020A0202CC852C82852D8322E5
:0B086D003C4E4F20464C4F41543E00D3
:1807C400AA82AB831207DC6003A380F8C3E5829AF582E5839BF5832278
:0D00060075813B1207F8E5826003020003DC
:1C07DC0020F71430F6148883A88220F507E6A88375830022E280F7E49322E0222C
:0407F80075820022E4
:00000001FF
