:040000000200513277
:01000B0032C2
:0100130032BA
:01001B0032B2
:0100230032AA
:01002B0032A2
:01003300329A
:01003B003292
:01004300328A
:03004B000206E7C3
:1800AA007536CD75370A7538EC753907753AAE753B0D75485102004E4A
:03004E000205C8E0
:2000C20075B1677E007F01EE24FFFCEF34FFFD8C068D07EC4D70F0E5B130E7FB75B288222F
:2000E200759850758920758DDCD28E438E10438780D29943A4012275FFDE75FFAD1200C25E
:200102001200E243E10443E34022AF8210990280FB8F992210980280FBAF998F82C0071241
:20012200010CD0078F82222098057582FF800BC29885998212010C85998222C00F85810FA9
:20014200E50F24FBF886820886830886F0120E88E5828583F045F070028062E50F24FBFF59
:200162008F0BE50F24FBF8860808860908860A90000175F0001207F690000175F000120E00
:2001820088AE827F00C3EF9E501FEF2401F582E43400F583E0FDBD0A0DEF2401F582E434F8
:2001A20000F583740DF00F80DC752D01752E00752F00752C008E307582C612044ED00F227E
:2001C20075270074C0252740177532277533007534407531007535017582C61204C880E3FC
:2001E20075280C752D28752E00752F40752C007530017582C612044E2275322A753300758B
:2002020034407531017535027582C61204C874FFB52A05758200805F7F008F068EF005F0C6
:200222007C017D008006EC2CFCED33FDD5F0F7AA2A7B00EA5204EB5205EC4D600774312F0A
:20024200F58280330E8E07BE080040D0E52B30E0057582398021E52B30E10575822A801725
:20026200E52B30E205758230800DE52B30E30575822380037582FF22AF82E4FDFEEF701D38
:20028200C006C00574C0C0E0740EC0E07480C0E012013D158115811581D005D006C006C004
:2002A200057408C0E0E4C0E07408C0E0E4C0E07408C0E0E4C0E07408C0E0E4C0E07408C07B
:2002C200E0E4C0E074D6C0E0740EC0E07480C0E012013DE58124F3F58190A12075F007E434
:2002E2001203E9D005D0067F00C007C006C0051201FBAC82D005D006D0078C03BCFF0280F8
:2003020003BB2A17902710E4F5F0C007C006C0051203E9D005D006D00780CEBB232AC0065E
:20032200C0051201FBAC82D005D006BC2313902710E4F5F0C006C0051203E9D005D00680D9
:20034200DD8D828E830203E88B027C00C007C006C005C004C003C002C002C00474E6C0E08D
:20036200740EC0E07480C0E012013DE58124FBF581D002D003D004D005D0068D118E129088
:20038200000AC004C003C002120769A882A983D002D003D004D007EA28F8EC39F9E824D0DC
:2003A200FDE934FFFEC007C006C005C0031201FBAC82D003D005D006D007ECB5031B902708
:2003C20010E4F5F0C007C006C005C0031203E9D003D005D006D00780CC0FBF050050030266
:2003E20002EB8D828E8322AC82AD83AEF0FF780079007A007B00C3E89CE99DEA9EEB9F50BC
:200402000F08B8000909B900050ABA00E90B80E62220C7FDD2C530C3FDC2C5C2C32285825B
:20042200C210C30280FB228582C2D2C410C30280FB2230C3FD85C282C2C32230C3FDAFC2F4
:20044200C2C3D2C410C30280FB8F8222AF82C2AFC007120413D00774FE5FF5821204208590
:200462002C821204207F00AD307E001DBDFF011E8F037C00C3EB9DEC64808EF063F08095B5
:20048200F0501FEF252DFCE4352EFDAE2F8C828D838EF0120EA0F582C007120420D0070FE7
:2004A20080C5AE307F001EBEFF011FEE252DFEEF352EFFAD2F8E828F838DF0120EA0F5825C
:2004C200120429D2AF22AF82C2AFC007120413D00774FE5FF582C00712042085318212043C
:2004E20029120413D00774014FF5821204207F00AD357E001DBDFF011E8F037C00C3EB9D30
:20050200EC64808EF063F08095F0502ED2C2EF2532FCE43533FDAE34C007C006C005C0049E
:20052200120434AB82D004D005D006D0078C828D838EF0EB12074E0F80B6C2C2AE357F00D3
:200542001EBEFF011FEE2532FEEF3533FFAD34C007C006C00512043DAC82D005D006D007CF
:200562008E828F838DF0EC12074ED2AF22752223752300752310752400752D22752E007575
:200582002F40752C2075300175823012044E22752204752D22752E00752F40752C23753087
:2005A2000175823A12044E75226B752300752400752D22752E00752F40752C207530017549
:2005C200823A12044E221200F975822012010C1206C61206D31206D71206E11207228536EF
:2005E2003C85373DE4F53EF53FC37432953EE4953F50F630B61385363C85373D74FFC3958B
:200602003CF5EC74FF953DF5FC20B6E7E542454360E1120728752D48752E00752F40752C85
:20062200007530017582E012044EE4F542F543120654C03CC03DC04DC04E74E9C0E0740E85
:20064200C0E07480C0E01208A5E58124F9F58180A222754B2D754C00742DC3954DF549E452
:20066200954EF54A7551EB7552FF854911854A1290FFEB120769AE82AF83E5362EF54FE54F
:20068200373FF550C3E53A953CE53B953D5008853A3C853B3D8006854F3C85503DC3E53C1C
:2006A2009538E53D9539500885383C85393D8006854F3C85503D74FFC3953CF5EC74FF9597
:2006C2003DF5FC2275A50253A4FC53A7BF75B0402275E1272275D98175DCC275D84022D277
:2006E200AF75E60822C0E0C0D0053EE4B53E02053F0540E4B54002054175E90075F970C2D0
:20070200DF53D8407404B54006E4B541028002800A754201E4F543F540F541D0D0D0E03271
:2007220075CF93D2C6227532467533007534407531027535027582E01204C8AF467E00AC80
:0C074200477D00EC4EF54DED4FF54E22CA
:200EC0000A54797065206469676974733B20656E6420772F23002020202020256325632572
:200EE00063256325630025630064697374616E6365203D2025752C2070756C7365776964DC
:0B0F00007468203D202575200D0A00BC
:06008000E478FFF6D8FD54
:20005E007900E94400601B7A00900F16785175AF00E493F2A308B8000205AFD9F4DAF275B5
:02007E00AFFFD2
:1B074E0020F71130F6138883A88220F509F6A8837583002280FEF280F5F022AA
:1D076900E5828511F0A4C582C0F08512F0A4D0F025F0C5838511F0A42583F5832237
:20078600C00F85810FC082058105810581E50F24FBF8A90F0909E6F70809E6F70809E6F70D
:2007A600A80F080886820886830886F0120EA0FAA3120EA0FBA3120EA0FF74012AFCE43BA1
:2007C600FD8F06A80F080886820886830886F0EC12074EA3ED12074EA3EE12074E8A828B4A
:2007E600838FF0A80F08E612074E850F81D00F2285820C85830D85F00E755F0C75600075FA
:200806006140850862850963850A64850B6590078612097CAE82AF83AB0CAC0DAD0E8B821B
:200826008C838DF0E412074E8E828F8322C00F85810FE50F24F8FF8F65E50F24FBFF8F5FB0
:20084600756000756140E50F24F8F8866208866308866490078612097CAE82AF83E50F24A6
:1B086600FBF886030886040886058B828C838DF0E412074E8E828F83D00F22CF
:200086007800E84400600A790175AF00E4F309D8FC7850E84400600C7901900001E4F0A318
:0400A600D8FCD9FAAF
:20088100C00F85810F12010CD00F2285826285836385F064E4F55FF560F561851065900831
:2008A1008102097CC00F85810FE50F24FBFF8F65E4F55FF560F561E50F24FBF886620886E1
:0D08C1006308866490088112097CD00F2224
:2008CE00AF82C055C056C0571208DB8007C053C0548F8222158115811581055DE4B55D02A5
:2008EE00055E22AF8274302FFF24C6500A74072FFF3000034307208F820208CEE582FFC4C5
:20090E00540FF582C0071208F1D007740F5FF5820208F1858211855812855913855A148582
:20092E005B15AA5C751620EA2AFAE515235401FF8A064EFAE5122512F512E51333F513E5E4
:20094E001433F514E51533F515C3EA95114008EAC39511FA431201E51614FF8F1670C88554
:20096E00125885135985145A85155B8A5C22858253858354855F55856056856157E4F55D81
:20098E00F55EAD62AE63AF648D828E838FF0120EA0FC74012DF562E43EF5638F64ECFF70A7
:2009AE0003020E81BF25028003020E79C201C202C203C204C205C206C207C208756600751F
:2009CE0067007568FFAA62AB63AE648A828B838EF0120EA0FFA3AA82AB838A628B638E647A
:2009EE00BF25078F821208CE8098BF3000402DEF24C6402874FFB56812E56775F00AA42F20
:200A0E00FC24D0F56770C4D20280C0E56875F00AA4FC8F05ED2C24D0F56880AFBF2E0A7440
:200A2E00FFB568A775680080A2BF6100400CEF248540075307DFD2008002C200BF200280EB
:200A4E006DBF2B028063BF2D028059BF42028063BF43028068BF4403020C1FBF4603020C6A
:200A6E0035BF48030209D9BF4903020C1FBF4A030209D9BF4C028040BF4F03020C26BF50FC
:200A8E0003020BB4BF5302805ABF54030209D9BF5503020C2BBF5803020C30BF5A030209CD
:200AAE00D9020C39D2010209D9D2030209D9D2040209D9D2060209D9D2070209D930060A25
:200ACE00E56514F9896587078011E56524FEFE8E658E018705098706198D078F821208CEF0
:200AEE00020C42E56524FDFE8E658E01870409870509870619198C588D598E5A8C828D83F5
:200B0E008EF0120E88AD82AE8374FFB568028D68200126C3ED95675020E567C39DF567AEA1
:200B2E00678E041EEC6010758220C006C0051208CED005D00680EA8E67AE6885588285594D
:200B4E0083855AF0120EA0FCFF602F8E041EC374808CF063F08095F050208F82C006C005A4
:200B6E001208CED005D006AA58AB59AC5A0ABA00010B8A588B598C5A80C1200103020C4297
:200B8E00C3ED95674003020C42E567C39DF567AE678E041EEC7003020C40758220C006129F
:200BAE0008CED00680EBE56524FDFC8C658C01870209870309870419198A588B598C5AACF1
:200BCE005ABC800040047F438014BC600040047F50800BBC400040047F4980027F588F82AB
:200BEE00C0071208CE75823A1208CE7582301208CE7582781208CED007BF4902800BBF503E
:200C0E0002800685598212090A85588212090A8023D20575660A801C756608801775660ADB
:200C2E008012756610800DD20880098F821208CE80028E6730085CE56524FCFE8E658E014B
:200C4E0087020987030987040987061919198A588B598C5A8E5B75580B75590F755A8085D7
:200C6E00586A85596B855A6C7401256AFAE4356BFCAE6C8A588C598E5A856A82856B838560
:200C8E006CF0120EA0FEFF70030209908F821208CE80CCE566700302099075691C30062D24
:200CAE00E56514F9896587048C027B007C007E008A588B598C5A8E5B200566AA587B007C3A
:200CCE00007E008A588B598C5A8E5B8054300721E56524FCFE8E658E018702098703098731
:200CEE00040987061919198A588B598C5A8E5B8030E56524FEFE8E658E0187040987061996
:200D0E00EE3395E0FBFA8C588E598B5A8A5B200510AA58AB597C007E008A588B598C5A8E36
:200D2E005B300522E55B30E71BC3E49558FAE49559FBE4955AFCE4955BFE8A588B598C5AD9
:200D4E008E5B8002C205D209A9697E00755C00856682C006C001120921D001D00620090B0C
:200D6E00E55CC4FCE7FB4CF7198002A75C0EB209E5584559455A455B70D289698E05E567AB
:200D8E007003756701200224200121ED04FEAC67C3EE9C5015758220C006C005C004120839
:200DAE00CED004D005D0061C80E68C6730050E75822DC0051208CED00515678023ED6020EE
:200DCE0030030E75822BC0051208CED0051567800F30040C758220C0051208CED0051567C0
:200DEE00200126AE678E041EC3ED9C502F3002067B307C0080047B207C008B82C006C0057C
:200E0E001208CED005D00680DCC3ED95675008E567C39DF567800775670080028E67A969DD
:200E2E008D068E051EED6026B20920090A09E7C4540FFD8D5C80078705740F5DF55C855CDD
:200E4E0082C006C0011208F1D001D00680D4200103020990AE678E051EED70030209907580
:1A0E6E008220C0061208CED00680EB8F821208CE020990855D82855E832259
:0B0F0B003C4E4F20464C4F41543E002E
:180E8800AA82AB83120EA06003A380F8C3E5829AF582E5839BF58322E2
:0D00510075816C120EBCE582600302004E4A
:1C0EA00020F71430F6148883A88220F507E6A88375830022E280F7E49322E02261
:040EBC007582002219
:00000001FF
